{
  "contractName": "AuthorDonation",
  "abi": [
    {
      "constant": false,
      "inputs": [
        {
          "name": "to",
          "type": "address"
        }
      ],
      "name": "donate",
      "outputs": [],
      "payable": true,
      "stateMutability": "payable",
      "type": "function"
    }
  ],
  "bytecode": "0x608060405234801561001057600080fd5b5060f28061001f6000396000f300608060405260043610603e576000357c0100000000000000000000000000000000000000000000000000000000900463ffffffff168062362a95146043575b600080fd5b6075600480360381019080803573ffffffffffffffffffffffffffffffffffffffff1690602001909291905050506077565b005b6000341415608457600080fd5b8073ffffffffffffffffffffffffffffffffffffffff166108fc349081150290604051600060405180830381858888f19350505050151560c357600080fd5b505600a165627a7a723058203f601b902f2a82d7dd24551eba6075ccc8b0bd9de3b861884d630432edd34b540029",
  "source": "// Tell the compiler what version of Solidity we're using.\npragma solidity ^0.4.4;\n\n// TestRPC HD wallet\n// warrior minimum breeze raven garden express solar flavor obvious twenty alpha actress\ncontract AuthorDonation {\n\n  // This method will be called from the Dapp.\n  // Any function which uses funds must contain the keyword payable.\n  function donate(address to) payable {\n    // If no Ether has been sent we have nothing to do.\n    if (msg.value == 0) throw;\n\n    // Attempt to forward Ether to the Author and then the Editor.\n    // Throw an exception if transfer fails. Ether is returned to sender.\n    if (!to.send(msg.value)) throw;\n\n  }\n}",
  "sourcePath": "/Users/edwardsujono/Node_JS_project/tbs-hackathon-backend/src/smart_contract/contracts/AuthorDonation.sol",
  "compiler": {
    "name": "solc",
    "version": "0.4.24+commit.e67f0147.Emscripten.clang"
  },
  "schemaVersion": "2.0.1",
  "updatedAt": "2018-06-29T19:08:03.219Z"
}