{
  "contractName": "Receiver",
  "abi": [
    {
      "constant": true,
      "inputs": [],
      "name": "balance",
      "outputs": [
        {
          "name": "",
          "type": "uint256"
        }
      ],
      "payable": false,
      "stateMutability": "view",
      "type": "function"
    },
    {
      "payable": true,
      "stateMutability": "payable",
      "type": "fallback"
    },
    {
      "anonymous": false,
      "inputs": [
        {
          "indexed": false,
          "name": "value",
          "type": "uint256"
        }
      ],
      "name": "Receive",
      "type": "event"
    }
  ],
  "bytecode": "0x60806040526000805534801561001457600080fd5b5060d2806100236000396000f300608060405260043610603f576000357c0100000000000000000000000000000000000000000000000000000000900463ffffffff168063b69ef8a8146078575b7f49b4c3f4344f33413322c03885f90f29e906bd8eb0cb2c3d815ee1ad2b3c989c346040518082815260200191505060405180910390a1005b348015608357600080fd5b50608a60a0565b6040518082815260200191505060405180910390f35b600054815600a165627a7a7230582068a9828d2f48ce3bb1a6b8fed115c64dedffda9e42c8e90f14bb4a8accc7d4250029",
  "source": "contract Receiver {\n  uint public balance = 0;\n  event Receive(uint value);\n\n  function () payable {\n    Receive(msg.value);\n  }\n}",
  "sourcePath": "/Users/edwardsujono/Node_JS_project/tbs-hackathon-backend/src/smart_contract/contracts/Receiver.sol",
  "compiler": {
    "name": "solc",
    "version": "0.4.24+commit.e67f0147.Emscripten.clang"
  },
  "schemaVersion": "2.0.1",
  "updatedAt": "2018-06-29T18:09:29.755Z"
}