{
  "contractName": "Sender",
  "abi": [
    {
      "constant": false,
      "inputs": [
        {
          "name": "_receiver",
          "type": "address"
        }
      ],
      "name": "send",
      "outputs": [],
      "payable": true,
      "stateMutability": "payable",
      "type": "function"
    }
  ],
  "bytecode": "0x608060405234801561001057600080fd5b5060dd8061001f6000396000f300608060405260043610603f576000357c0100000000000000000000000000000000000000000000000000000000900463ffffffff1680633e58c58c146044575b600080fd5b6076600480360381019080803573ffffffffffffffffffffffffffffffffffffffff1690602001909291905050506078565b005b8073ffffffffffffffffffffffffffffffffffffffff166108fc349081150290604051600060405180830381858888f1935050505050505600a165627a7a7230582087d0c5da2ffa185fb9f7923b292e435707d76feeca4b7eaaaa4b74b7a72218750029",
  "source": "contract Sender {\n  function send(address _receiver) payable {\n    _receiver.send(msg.value);\n  }\n}\n",
  "sourcePath": "/Users/edwardsujono/Node_JS_project/tbs-hackathon-backend/src/smart_contract/contracts/Sender.sol",
  "compiler": {
    "name": "solc",
    "version": "0.4.24+commit.e67f0147.Emscripten.clang"
  },
  "schemaVersion": "2.0.1",
  "updatedAt": "2018-06-29T18:09:29.580Z"
}